:020000040000FA
:1000000060080010990200009D0200009F0200009D
:10001000A1020000A3020000A502000000000000F1
:10002000000000000000000000000000A702000027
:10003000A902000000000000AB0200004F4F0000CA
:10004000AF020000AF020000AF020000AF020000EC
:10005000AF020000AF020000AF020000AF020000DC
:10006000AF020000AF020000AF020000AF020000CC
:10007000AF0200002919000031100000991500009E
:10008000AF020000AF020000B30B0000ED0B000058
:10009000E90F000055080000AF020000AF020000A9
:1000A000AF020000AF020000AF020000AF0200008C
:1000B000394D0000174D0000C34C0000954C000066
:1000C00000F002F800F0BDF80CA030C80838241881
:1000D0002D18A246671EAB4654465D46AC4201D180
:1000E00000F0AFF87E460F3E0FCCB64601263342F5
:1000F00000D0FB1AA246AB4633431847C873000032
:10010000E8730000103A02D378C878C1FAD85207D1
:1001100001D330C830C101D504680C6070470000BD
:100120000023002400250026103A01D378C1FBD813
:10013000520700D330C100D50B60704710B56E294F
:1001400002D105F003FC10BD702902D105F047F97A
:1001500010BD662902D106F009FD10BD652902D146
:1001600006F004FD10BD672902D106F0FFFC10BDAA
:10017000612902D106F002FD10BD03681B0A01D3FC
:1001800080231943692902D105F0B4F810BD642910
:1001900002D105F0AFF810BD752902D105F0AAF81B
:1001A00010BD6F2902D105F0D1FC10BD782902D114
:1001B00005F002F910BDE92902D105F06DFC10BD72
:1001C000E42902D105F068FC10BDF52902D105F043
:1001D00063FC10BDEF2902D105F0C4FC10BDF82965
:1001E00002D105F0F7F810BD0368DB0901D38023C5
:1001F0001943632902D106F090F810BD732902D18A
:1002000006F093F810BDE32902D106F09DF810BD69
:10021000F32902D106F0A0F810BD002010BD1FB5D3
:1002200006F0E6F804000020002106F089FC401CDE
:1002300060600020002106F06DFCE0601FBD10B57D
:1002400010BD06F0ADF81146FFF7E9FF04F02AFAF9
:1002500006F0CEFB03B4FFF7F2FF03BC00F058FC3E
:1002600070B505460C46164602E00FCC0FC5103E91
:10027000102EFAD2082E02D303CC03C5083E042E5A
:1002800007D301CC01C5361F03E021782970641C17
:100290006D1C761EF9D270BD08480047FEE7FEE7E8
:1002A000FEE7FEE7FEE7FEE7FEE7FEE7FEE7FEE726
:1002B00003480449024A044B70470000C100000093
:1002C0006006001060080010600600107047000013
:1002D0000FB4054910B503AA029805F06BFB10BCDA
:1002E00008BC04B0184700001C000010704770479D
:1002F00070470A681070521C0A607047FFFFFFFFCA
:100300003249334A11600121324A116051600021A3
:1003100051600121516000BF2E494968C907C90FCA
:100320000029F9D02B4940398868400A400203214E
:100330000143284A403A91602749896B80229143C2
:10034000254A916300BF23494039C968C907C90FCD
:100350000029F8D003211F4A1163012151630021B4
:1003600051630121516300BF1A49496BC907C90F85
:100370000029F9D00121174A9163154909688900BC
:10038000164A116011460968154A1160704700B598
:100390000220104940390860002008620E48806B36
:1003A000202188430C498863002300E05B1CFF2B5D
:1003B000FCD9FFF7A5FF0748403000680121090478
:1003C000084304494031086000BD0000001BB7002D
:1003D000000000104080044000820440040000102F
:1003E00008000010A0211C4A51621B49C03108615D
:1003F0000121194AC032516100215161012151612D
:1004000000BF1549C0314969C907C90F0029F8D093
:100410000121114AC03291611049896B40229143F8
:100420000E4A916370470C49C031086201210A4AA3
:10043000C0325162002151620121516200BF064960
:10044000C031496AC907C90F0029F8D00121024A01
:10045000C032916270470000008004400082044076
:1004600010B5F548006840210843F34908601F2093
:1004700000F0DBF91E2000F0D8F91D2000F0D5F9BE
:100480001C2000F0D2F910BD70B5049C002806D0E5
:10049000012838D002286AD003287BD19CE0002AAA
:1004A00018D1E64D6D6801268E40B543E34E756068
:1004B000002B07D13546AD6801268E40B543DF4E8F
:1004C000B5600EE0DD4DAD6801268E403543DB4E54
:1004D000B56006E0D94D6D6801268E403543D74E94
:1004E0007560002C07D1D54DED6801268E40B543CF
:1004F000D24EF56006E0D14DED6801268E403543C1
:10050000CE4EF5609DE0002A18D1CD4D6D680126D4
:100510008E40B543CA4E7560002B07D13546AD6895
:1005200001268E40B543C64EB5600EE0C44DAD68A1
:1005300001268E403543C24EB56006E0C04D6D6861
:1005400001268E403543BE4E7560002C07D1BC4D50
:10055000ED6801268E40B543B94EF56006E0B84D12
:10056000ED6801268E403543B54EF56069E0002AFE
:1005700019D1B44D6D6801268E40B543B14E7560FA
:10058000002B08D13546AD6801268E40B543AD4EEF
:10059000B5600FE054E0AB4DAD6801268E403543A9
:1005A000A84EB56006E0A74D6D6801268E40354324
:1005B000A44E7560002C07D1A24DED6801268E4037
:1005C000B543A04EF56006E09E4DED6801268E40D5
:1005D00035439C4EF56034E0002A18D19A4D6D6881
:1005E00001268E40B543984E7560002B07D13546E5
:1005F000AD6801268E40B543934EB5600EE0924D36
:10060000AD6801268E4035438F4EB56006E08E4DB5
:100610006D6801268E4035438B4E7560002C07D1E6
:10062000894DED6801268E40B543874EF56006E0A2
:10063000854DED6801268E403543834EF56000E020
:1006400000BF00BF70BD002806D001280CD00228D2
:1006500012D0032820D117E0784A126901238B4079
:100660001A43764B1A6118E0754A126901238B40D0
:100670001A43734B1A6110E0724A126901238B40CE
:100680001A43704B1A6108E06F4A126901238B40CC
:100690001A436D4B1A6100E000BF00BF704700288D
:1006A00006D001280CD0022812D0032820D117E050
:1006B000624A126901238B409A43604B1A6118E029
:1006C0005F4A126901238B409A435D4B1A6110E027
:1006D0005C4A126901238B409A435A4B1A6108E025
:1006E000594A136901228A409343574A136100E033
:1006F00000BF00BF704710B502460020002A06D098
:10070000012A0DD0022A14D0032A24D11AE04B4B1F
:100710009B6901248C402340002B00D001201BE06A
:10072000474B9B6901248C402340002B00D00120C3
:1007300012E0444B9B6901248C402340002B00D0E5
:10074000012009E0404B9B6901248C402340002B91
:1007500000D0012000E000BF00BF10BD002806D07F
:1007600001280CD0022812D0032820D117E0334AE8
:10077000D26901238B401A43304BDA6118E0304ACA
:10078000D26901238B401A432D4BDA6110E02D4AC8
:10079000D26901238B401A432A4BDA6108E02A4AC6
:1007A000D26901238B401A43274BDA6100E000BF76
:1007B00000BF704730B513468B408400234D2D5940
:1007C00001248C40A4002B5130BD024690001F4BE9
:1007D0001B580120884080001858704730B5002A07
:1007E00011D08300194CE3580124E4031B191B6842
:1007F00001248C4023438400144D2C590125ED0322
:100800006419236010E08300104CE3580124E403D2
:100810001B191B6801248C40A34384000B4D2C59E9
:100820000125ED036419236030BDC206D20E0121FB
:100830009140074A1160704780800440008000505A
:100840000080015000800250008003508C6B00003B
:1008500000E100E070B500BF894A9268D0B2401054
:100860004007400F032822D1854A5269D1B29E2207
:100870000A40002A05D0834A1160814A1268D3B227
:1008800070BDCA07D20F002A3FD07D4C2468E5B264
:100890007D4C2268541C7C4E34607C4CA5543246FE
:1008A0001268402A31D30022344622602DE002280B
:1008B00011D1734C2468E5B2734C2268541C724EFB
:1008C0003460724CA55432461268402A1DD300226F
:1008D0003446226019E0062807D16A4A1268FF24CC
:1008E00001342243674C22600FE001280DD1644A95
:1008F0005269D1B220220A40002A03D00122644C5E
:10090000227002E00022624C227000BFB8E7F8B506
:10091000044601205E49087000205B4908601520EC
:10092000012181405B4A116000BF5B48406AC008FA
:10093000C000594948620846406A012108435649A7
:1009400048620846806AC008C00088620846806A1B
:100950000121084350498862504800680121090379
:1009600008434E4908600120886183204449C860DB
:100970004A48866931464A48006804F0A7FE0709DC
:100980002146384604F0A2FE0546280A3C49486044
:10099000E8B208600320C8600720886008464669FE
:1009A00000BF37484069602108406028F9D101E064
:1009B0003348066832484069C007C00F0028F7D1A5
:1009C000152001218140334A803A116000BF052083
:1009D0002B494860F8BD0BE000BF294A526920232B
:1009E0001A40002AF9D00278254B1A60401C491E93
:1009F0000029F1D1704700BF2149496920221140E7
:100A00000029F9D01E490860704700B5034603E08D
:100A100018785B1CFFF7EFFF18780028F8D100BDAD
:100A20000FB400B59BB01DA80090642101A8009BE5
:100A30001C9A04F0FDFB01A8FFF7E7FF00200090DF
:100A40001BB008BC04B018470146164800680E4A9F
:100A50001268904211D00D48124A1268805C0870EA
:100A600010480068401C0F4A10601046006840287B
:100A700001D300201060012070470020FCE7000037
:100A8000008000400C00001014000010F400001062
:100A90001000001080E100E08040044080800440AD
:100AA000080000101800001000BF1F4949692022EB
:100AB00011400029F9D01C490860704710B5034661
:100AC0000C461846FFF7F0FF10BD00BF174800683E
:100AD0000028FBD006201449486000201349086014
:100AE00007201149486012480078704710B5044645
:100AF000FFF7EBFF0346FFF7D7FF10BD00B5034636
:100B00001846FFF7D1FF00BD01460020C0437047E3
:100B100000BFFEE700BF04484069C007C00F0028BF
:100B2000F9D00148006870470080004014000010B0
:100B3000F400001070B504460D46002C1BD10220B5
:100B4000FE4948600020C8607D21C900FC4800685B
:100B500004F0BCFD6843F9498861FF200860042067
:100B600048610120486000BFF4484068C007C00FDA
:100B70000028F9D11CE0012C1AD10220F14948606B
:100B80000020C8607D21C900ED48006804F09EFD8A
:100B90006843EC498861FF20086004204861012017
:100BA000486000BFE7484068C007C00F0028F9D17F
:100BB00070BDE2480068C007C00F002807D00120C0
:100BC000DE490860E0480068401CDF490860DB48F7
:100BD000006810210840002807D01020D74908607D
:100BE000DA480068401CD94908607047D548006859
:100BF000C007C00F002807D00120D2490860D448A0
:100C00000068401CD2490860CE48006810210840A6
:100C1000002807D01020CB490860CE480068401C4F
:100C2000CC4908607047002803D10121C34A5160B4
:100C300002E00121C34A51607047002803D100211E
:100C4000BE4A516002E00021BE4A51607047014631
:100C5000002906D1B94A506802221043B74A5060B1
:100C600005E0B84A506802221043B64A5060704707
:100C700070B504460D46002C47D1B74800680121E5
:100C800049020843B4490860B448006AC008C0007B
:100C9000B24908620846006A02210843AF49086267
:100CA0000846406AC008C00048620846406A0221FF
:100CB0000843AA4948620846806AC008C0008862A2
:100CC0000846806A02210843A4498862A348803804
:100CD0000069C008C000A149803908610846006960
:100CE000022108439D498039086100209649086027
:100CF00096490860914885610520904988620320E3
:100D00004861122000F063F922E0012C20D19248C2
:100D10000068A10208439049086090484069C008F3
:100D2000C0008E49486108464069022108438B494A
:100D300048610020864908608649086081488561CD
:100D400005208049886203204861132000F03FF9A4
:100D500070BD70B504460D46002C12D17E48006867
:100D60000121490208437C49086000207649086057
:100D700072488561032071494861122000F027F90B
:100D800012E0012C10D174480068A1020843724996
:100D9000086000206E4908606A488561032069493F
:100DA0004861132000F013F970BD30B505460C46BC
:100DB00013462846FFF741FF012D66D166480068BB
:100DC000A902084364490860B320C00018435D4984
:100DD000C863D807C00F00280ED060484038C06BE9
:100DE000C008C0005D494039C8630846C06B032194
:100DF00008435A494039C8630220184000280BD0E4
:100E000056480068C008C000544908600846006899
:100E100003210843514908600420184000280BD0E2
:100E20004E480069C008C0004C4908610846006986
:100E300003210843494908610820184000280BD0C5
:100E400046484069C008C0004449486108464069B6
:100E50000221084341494861012018433949403182
:100E600048633F4804600068364948623C4800686F
:100E7000400888613A4800684008C86138480068FE
:100E800040080862022048616FE033480068012191
:100E90004902084330490860CB20C0001843274965
:100EA000C8630220184000280BD02C48806AC00874
:100EB000C0002A4988620846806A022108432749FF
:100EC00088620420184000280ED024488038006929
:100ED000C008C00021498039086108460069022124
:100EE00008431E49803908610820184000280ED0A8
:100EF0001A484038406BC008C00018494039486360
:100F00000846406B032108431449403948630820D0
:100F100018430A4940314863124804600068074991
:100F200048621048006888610E4800684008C8613F
:100F30000C48006840080862081515E000400140B0
:100F40000800001000800140240000102C00001058
:100F500028000010300000108080044080400440D1
:100F60003800001034000010486130BD002816D051
:100F7000002906D0012907D0022908D003290CD165
:100F800008E0164B9A6109E0144BDA6106E0134B56
:100F90001A6203E0114B5A6200E000BF16E000291C
:100FA00006D0012907D0022908D003290CD108E076
:100FB0000B4B9A6109E00A4BDA6106E0084B1A62B2
:100FC00003E0074B5A6200E000BF00BF7047C20653
:100FD000D20E01219140034A116070470080014008
:100FE0000040014000E100E0F949C869C107C90FAC
:100FF000002907D0F7490968491CF64A1160012108
:10100000F34A116202210140002907D0F249096820
:10101000491CF14A11600221ED4A1162042101408C
:10102000002904D0ED490968491CEC4A1160704759
:10103000EB49C869C107C90F002907D0E949096808
:10104000491CE84A11600121E54A11620221014070
:10105000002907D0E4490968491CE34A11600221CC
:10106000DF4A116204210140002904D0DF490968E8
:10107000491CDE4A1160704710B50446002C47D168
:10108000DB48406801210843D9494860D84880308E
:101090000068C9140843D6498031086002204861BD
:1010A000D448006AC008C000D24908620846006AF5
:1010B00001210843CF4908620846406AC008C000C1
:1010C00048620846406A01210843CA494862012033
:1010D000C84940310863C7490863C5488030006883
:1010E00040210843C24980310860C2484038C06985
:1010F000C008C000BF494039C86101220221002058
:10110000FFF76CFB012202210020FFF753FB54E0A4
:10111000B748406804210843B5494860B448803066
:101120000068012189040843B14980310860022028
:10113000C861B048C069C008C000AE49C86108466F
:10114000C06902210843AB49C861AA484030C06861
:10115000C008C000A7494031C8600846C0680221E5
:101160000843A4494031C860A2484038806AC0089A
:10117000C000A049403988620846806A02210843BD
:101180009C49403988629A48803000684021084371
:10119000974980310860974840388068C008C0008F
:1011A000944940398860012200210220FFF716FB94
:1011B000012200210220FFF7FDFA10BD10B5044600
:1011C000002C69D18A484068012108438849486059
:1011D000874880300068C914084385498031086019
:1011E000022048618348006AC008C0008149086243
:1011F0000846006A012108437E4908620846406AA1
:10120000C008C00048620846406A01210843794985
:10121000486202207749403108637649C8607448C3
:10122000803000684021084371498031086071486E
:101230000068C008C0006F49086001220421022034
:10124000FFF7CCFA012204210220FFF7B3FA694824
:1012500040380068C008C000664940390860012273
:1012600006210220FFF7BAFA012206210220FFF729
:10127000A1FA60484038006AC008C0005D494039A2
:101280000862012207210220FFF7A8FA01220721A4
:101290000220FFF78FFA54E05548406804210843C4
:1012A000534948605248803000680121890408434E
:1012B0004F49803108600220C8614E48C069C008AB
:1012C000C0004C49C8610846C06902210843494929
:1012D000C86148484030C068C008C0004549403136
:1012E000C8600846C0680221084342494031C860CE
:1012F00040484038806AC008C0003E494039886292
:101300000846806A022108433A49403988623848D1
:1013100080300068402108433549803108603548F5
:1013200040388068C008C0003249403988600122D6
:1013300000210220FFF752FA012200210220FFF7CC
:1013400039FA10BD70B5054600BF002D16D12A48E8
:101350001F490860FE200861002404E01C488068E2
:10136000C6B2601CC4B2082CF8DB142000F006F9E9
:101370000220174948600320486115E01E481849BB
:10138000086002200861002404E015488068C6B2A5
:10139000601CC4B2082CF8DB0E2000F0EFF802202D
:1013A0000F4948600320486170BDF8B507460D46F7
:1013B000164600980090002F31D1681E07210902BF
:1013C0000843034908600846066100241CE0000049
:1013D0000000044040000010440000103C000010D9
:1013E000008005404C000010500000104800001024
:1013F00000800440404004400707000063488068C4
:10140000C0B20090601CC4B2082CF7DB142000F0BE
:10141000B5F802205D4948600320486119E0681E64
:101420000721090208435A4908600846066100245A
:1014300005E057488068C0B20090601CC4B2082C18
:10144000F7DB0E2000F09AF8022051494860032093
:101450004861F8BD70B500BF00232DE0002815D10C
:1014600000BF4A4DED6812263540022DF9D10D78A6
:10147000464EB560491C00BF444DED68142635400A
:10148000042DF9D1414DAD68ECB214E000BF404DE0
:10149000ED6812263540022DF9D10D783C4EB5602D
:1014A000491C00BF3A4DED6814263540042DF9D192
:1014B000374DAD68ECB25B1C9342CFD370BD30B5F5
:1014C00000231FE000280ED1FF24304DAC6000BF88
:1014D0002E4CE46814252C40042CF9D12B4CA46824
:1014E0000C70491C0DE0FF24294DAC6000BF284C56
:1014F000E46814252C40042CF9D1254CA4680C7008
:10150000491C5B1C9342DDD330BD0246002A1AD130
:1015100000BF1E48C068122318400228F9D11B489A
:10152000816000BF1948C068102318400028F9D115
:1015300000BF1648C068142318400428F9D1134886
:10154000806880B2704700BF1148C06812231840FD
:101550000228F9D10E48816000BF0D48C0681023F1
:1015600018400028F9D100BF0948C068142318406A
:101570000428F9D10648806880B2E3E7C206D20E9B
:1015800001219140034A11607047000000000440AF
:101590000080054000E100E010B5012080074068B0
:1015A000C1B24807400F00286FD1C810030005F0F2
:1015B00085FA0CB3071523AB393AB464AC7496B30F
:1015C0000020AC4A1060AC4800780122920790607D
:1015D000282090610120A94A1060A2E00020A84ABA
:1015E0001060A54800780122920790602820906141
:1015F0000220A24A106094E0A048006801280DD1A2
:101600009C4A1068421C9B4B1A609E4A1268125CEE
:1016100001239B079A600420984A10600820C206A4
:1016200090617EE000BF93480068974A126890423C
:101630000ED2904A1068421C8E4B1A60914A126872
:10164000125C01239B079A6004208C4A106010E012
:101650008E480068002806D0202042061060032033
:10166000864A106005E00520844A1060102082063A
:1016700010600820C206906153E084480068012889
:1016800004D104200207906103E045E00420020732
:1016900010600820C206906143E001229207926820
:1016A000D3B2774A1068421C754C2260784A12689F
:1016B000135420460068754A1268904205D20420EF
:1016C0006E4A10600207106005E005206B4A10604A
:1016D0000420020790610820C206906121E00122E7
:1016E00092079268D3B2664A1068421C644C22602A
:1016F000674A126813540520604A10601020820661
:101700001060082090610CE000BF0820C2069061C4
:1017100005205A4A106004E000BF0820C20690610C
:1017200000BF00BF10BD00210020202253061A6018
:101730000BE0524A1268012A01D1012006E0554A05
:10174000914201D3002001E0491CF2E700BF70473D
:101750001020810608600820886100BF01208007F2
:101760000068102108400028F8D10120704710B50A
:1017700002464948406802231843474B5860464890
:101780008030006820231843434B8033186043485F
:10179000006B80098001414B18631846006B0123E0
:1017A00018433E4B18631846406B8009800158630C
:1017B0001846406B01231843384B58636C201B04B8
:1017C0009861FF20813058611861022A01D15007C9
:1017D000C1600F2001238340314C236000BF4020B3
:1017E00003061860012010BD00B5002023490860E1
:1017F000234908601F490860FFF795FF012803D0BF
:10180000FFF7A6FF002000BD06E01C480068052881
:1018100002D1FFF79DFF00E0F7E700BF0120F2E7EC
:1018200070B506460C461546012030431249087033
:101830001748046015480560012013490860FFF748
:10184000D3FF124800681149086070BD70B50646A4
:101850000C461546084806700A4804600A480560A8
:1018600000200A490860FFF7BFFF074800680649E3
:10187000086070BD780000107C000010540000105B
:101880007400001064000010700000106C00001064
:1018900068000010FFFFFF0000800440004004408B
:1018A00000E100E030B5024600BFC84B1B680124D0
:1018B000E4032340002BF8D17F23C44C6360531C06
:1018C000236000BFC14B1B680124E4032340002BAD
:1018D000F8D118235343BE4C1819BC4B5B69012443
:1018E000A4032340002B08D0B84B19691C46646937
:1018F000B84D2C402404214303E0B44B5B69DB0466
:10190000590D02C0B14B9B691B071B0F08C0AF4BA1
:10191000DB6908C0AD4B1B6A08C0AC4B5B6A08C0F2
:10192000AA4B9B6A08C030BD70B500BF36E00120ED
:10193000C0033040002816D0A448803845684020B5
:101940002840002805D0A4480068401CA24908602F
:1019500070BD80202840002820D0A0480068401C8E
:101960009E490860F4E76807400F002816D1740408
:10197000640C002C12D0202C10D894488038406879
:1019800010218843914980394860611EC8B2FFF731
:1019900089FF0121601E8000914A11508B488038D8
:1019A0000669002EC3D100BFD2E70021002059E014
:1019B000F322864B803B5A6200291BD100229A6297
:1019C000884ADA6200221A63C21DF93292000123AA
:1019D000DB031A437D4B803B5A63C207D20F002AB8
:1019E00002D1814A9A6326E0804A784B803B9A6311
:1019F000012120E07E4A754B803B9A627D4ADA6283
:101A000001221205821892B21A630122120582186D
:101A1000120C03239B031A436C4B803B5A63C2078F
:101A2000D20F002A02D1704A9A6304E06F4A674BD2
:101A3000803B9A6300210022644B803BDA63634B56
:101A4000403B1A605A609A60421C604B803B1A62AD
:101A500000BF5E4A803A126A0123DB031A40002A63
:101A6000F7D1401C2028A3D3704710B50446624824
:101A7000406808210843604948605F48803000683A
:101A80000121490408435C49803108604F4880388F
:101A90000068C007C00F002807D14C488038006894
:101AA00001210843494980390860052053490860ED
:101AB000464880380068402108434449803908601E
:101AC0004F48C8600020886108460068402188436C
:101AD0003E498039086008460068400840000860B8
:101AE00000BF3A4880380068C007C00F0028F8D10E
:101AF000FFF75BFF0D2001218140424A116000BFCA
:101B00003248803800680E21084330498039086027
:101B100010BDF0B503460C46002A01D100BFFEE718
:101B200002CA002C02D0CE00B00800E0084620CA4D
:101B3000082D00D908250126B6070E40002E0ED12B
:101B4000860005277F033E43204F803F7E630026AB
:101B50003E63204EF61EFE620026BE620CE0060CBE
:101B600007277F033E43194F803F7E6386B23E6363
:101B7000254EFE621E4EBE622E07360F2327FF0142
:101B80003E43124F803FBE6340CAFE6340CA0F4FC0
:101B9000403F3E6040CA7E601668BE60F7260B4F2D
:101BA000803F7E62002C02D09E1C3E6203E05E1CE1
:101BB000064F803F3E6200BF044E803E366A0127DA
:101BC000FF033E40002EF7D1F0BD0000800005402D
:101BD000B4010010FF5F00008400001080000010BE
:101BE00034010010FC1F0000881000008814000061
:101BF000FFFF0000FF9F00000080044080010540BF
:101C00000123000000E100E0FFDF0000F1B582B039
:101C10002148846940690190204902984843009016
:101C20000199009803F052FD07460199009803F0CE
:101C30004DFD0D46002F0ED000260AE000BF1648CD
:101C40008069A042FBD300BF13488069A042FBD843
:101C5000761CBE42F2D3002D1DD0A54206D200BF95
:101C60000D488069611B8842FAD814E0A54205D16D
:101C700000BF09488069A042FBD30CE000BF0648C2
:101C80008069A042FBD300BF034881692A1B0198E9
:101C9000801A8142F8D8FEBD00E000E080BB000061
:101CA00010B5002203211046FEF798FD0022042102
:101CB0000120FEF793FD002208210120FEF78EFD92
:101CC000002209210120FEF789FD00220A210120BE
:101CD000FEF784FD00220B210120FEF77FFD10BDE1
:101CE00010B508210120FEF770FD002801D1012068
:101CF00010BD09210120FEF768FD002801D1022056
:101D0000F6E70A210120FEF760FD002801D103203B
:101D1000EEE70B210120FEF758FD002801D1042039
:101D2000E6E703210020FEF750FD002801D1052041
:101D3000DEE704210120FEF748FD002801D106203E
:101D4000D6E70020D4E7000010B5012209210220C7
:101D5000FEF744FD012209210220FEF72BFD01229E
:101D60000A210220FEF73AFD01220A210220FEF795
:101D700021FD01220B210220FEF730FD10BD70B5C0
:101D80000446202C01DBFF2403E0E006C00E1149CD
:101D90000C5C002209210220FEF70CFD002511E059
:101DA00000220A210220FEF705FDE207D20F0B21D7
:101DB0000220FEF7FFFC641001220A210220FEF738
:101DC000F9FC6D1C082DEBD3012209210220FEF73E
:101DD000F1FC70BDAC6B000000BF0146421ED0B2EA
:101DE0000029FAD1704770B50346002510E00024A1
:101DF0000AE0002604E0CB20FFF7EEFF701CC6B21D
:101E00000F2EF8DB601CC4B2832CF2DB681CC5B259
:101E10009D42ECDB70BD10B5044600220521022076
:101E2000FEF7C8FC002204210220FEF7C3FC214675
:101E30000020FFF76AFB012204210220FEF7BAFC12
:101E4000012205210220FEF7B5FC10BD10B50446A5
:101E5000012205210220FEF7ADFC00220421022010
:101E6000FEF7A8FC21460020FFF74FFB01220421CA
:101E70000220FEF79FFC012205210220FEF79AFCBA
:101E800010BD70B504462546E117090F491909111F
:101E90000901611AC8B2FFF7BEFF2546E117090F15
:101EA000491909111031C8B2FFF7B5FF70BD10B55F
:101EB00004462020FFF7AFFF2046FFF7ACFF10BD20
:101EC00070B505460C462120FFF7A5FF2846FFF711
:101ED000A2FF2046FFF79FFF70BD70B505460C4678
:101EE0002220FFF798FF2846FFF795FF2046FFF7CF
:101EF00092FF70BD10B50446402121430846FFF70C
:101F00008AFF10BD10B504468120FFF784FF2046EC
:101F1000FFF781FF10BD10B504468D20FFF77BFF52
:101F2000102121430846FFF776FF10BD10B5044687
:101F3000A02121430846FFF76EFF10BD10B50446EF
:101F4000A42121430846FFF766FF10BD10B50446E3
:101F5000A62121430846FFF75EFF10BD10B50446D9
:101F6000A820FFF758FF2046FFF755FF10BD10B51A
:101F70000446AE2121430846FFF74DFF10BD10B5C2
:101F80000446B02121430846FFF745FF10BD10B5B8
:101F90000446C02121430846FFF73DFF10BD10B5A0
:101FA0000446D320FFF737FF2046FFF734FF10BD6C
:101FB00010B50446D520FFF72EFF2046FFF72BFF74
:101FC00010BD10B50446D920FFF725FF2046FFF7C6
:101FD00022FF10BD10B50446DA20FFF71CFF0221D6
:101FE00021430846FFF717FF10BD10B50446DB205C
:101FF000FFF711FF2046FFF70EFF10BD10B5E320DD
:10200000FFF709FF10BD70B50646002410E020461A
:10201000FFF7B5FF0020FFF734FF002504E030464E
:10202000FFF714FF681CC5B2802DF8DB601CC4B23A
:10203000082CECDB70BD10B50020FFF7E4FF10BDED
:10204000FFB581B00D4616461F462C4615E02046CA
:10205000FFF795FF3846FFF714FF0020009006E0D9
:102060000198FFF7F3FE0098401CC0B200900A9957
:1020700000988842F4DB601CC4B2701C8442E6DB2A
:1020800005B0F0BD70B5002413E02046FFF777FFE0
:102090000020FFF7F6FE002507E05520FFF7D6FEEB
:1020A000AA20FFF7D3FE681CC5B2402DF5DB601CEB
:1020B000C4B2082CE9DB70BD70B50020FFF75FFFEC
:1020C0000020FFF7DEFE002404E00120FFF7BEFE43
:1020D000601CC4B2802CF8DB0720FFF750FF002003
:1020E000FFF7CFFE002404E08020FFF7AFFE601C66
:1020F000C4B2802CF8DB002411E02046FFF73FFF3C
:10210000002508E0E8B2FFF7BCFEFF20FFF79EFEC7
:1021100028467F30C5B2802DF4DB601CC4B2082C89
:10212000EBDB70BDFFB581B007460D46012F02D035
:10213000022F0BD104E0A8002818FE49441805E03E
:10214000681E81004018FC49441800BF00BF039876
:10215000FFF715FF0498FFF794FE002605E02078AE
:10216000FFF774FE641C701CC6B2052EF7DB00205E
:10217000FFF76CFE05B0F0BDFFB581B007460D4618
:102180001E462C46334660210120039AFFF7CAFF02
:102190000CE0217833463846039AFFF7C3FF641CEE
:1021A000B01DC6B22078002800D100E0F1E700BFE2
:1021B00005B0F0BDFFB583B005460E461746029543
:1021C000344619E02046FFF7DAFE0698FFF759FE7D
:1021D000002001900AE002990878FFF737FE029884
:1021E000401C02900198401CC0B201900C990198CB
:1021F0008842F0DB601CC4B2781C8442E2DB07B08A
:10220000F0BDFFB581B00D4614460498203881001A
:102210004018C84946180198FFF7B1FE002D0BD1B0
:102220000020FFF72EFE002C03D10020FFF70EFE4A
:1022300002E0FF20FFF70AFE691CC8B2FFF721FE8B
:1022400000270DE0002C03D13078FFF7FFFD04E0FC
:102250003178C943C8B2FFF7F9FD761C781CC7B2C4
:10226000052FEFDB002C03D10020FFF7EFFD02E08C
:10227000FF20FFF7EBFD05B0F0BDF8B506460F46B1
:1022800014460025082E19DA08E023783A46294634
:102290003046FFF7B6FFA81D85B2641C20780028E1
:1022A00001D0012000E00020691C89B2802901DAF8
:1022B000012100E0002108400028E6D1F8BDFFB56B
:1022C00081B015461F46A320FFF7A5FD0298FFF732
:1022D000A2FD2846FFF79FFD0198002802D00128A3
:1022E00025D111E000240CE0E0B2FFF703FE002648
:1022F00003E0C820FFF770FD761C0A988642F8D3E9
:10230000E419AC42F0D312E000240DE0291BC8B25E
:10231000FFF7F0FD002603E0C820FFF75DFD761C07
:102320000A988642F8D3E419AC42EFD300BF00BF4D
:102330000020FFF7DFFD05B0F0BDF8B504460D46FF
:1023400016461F46262121430846FFF764FD00205C
:10235000FFF761FD2846FFF75EFD3846FFF75BFD9E
:102360003046FFF758FD2F20FFF755FD0698FFF781
:102370003AFDF8BDF8B504460D4616461F46A320A3
:10238000FFF749FD3846FFF746FD0698FFF743FD86
:1023900021462931C8B2FFF73EFD0020FFF73BFD83
:1023A0002846FFF738FD0898FFF735FD3046FFF760
:1023B00032FD0798FFF72FFD2F20FFF72CFD09981E
:1023C000FFF711FDF8BD10B52E20FFF724FD10BD5D
:1023D00010B50120FFF7CBFD00240CE0E0B2FFF7C1
:1023E00091FDC820FFF7F8FCC820FFF7F5FCC820D6
:1023F000FFF7F2FC641CD02CF0D310BD10B5D02434
:102400000DE0611EC8B2FFF77DFDC820FFF7E4FCB8
:10241000C820FFF7E1FCC820FFF7DEFC641E002C9B
:10242000EFD10020FFF7A3FD10BD10B50446002C2E
:1024300002D0012C0ED106E00020FFF798FD01200C
:10244000FFF77CFD06E00020FFF778FD0120FFF795
:102450008EFD00BF00BF10BD0120FFF76FFD0BE038
:102460000120FFF784FD0220FFF7BDFC0020FFF7ED
:102470007EFD0220FFF7B7FCF2E710B50020FFF762
:1024800076FD8020FFF794FD3F20FFF767FD0020D9
:10249000FFF785FD0020FFF72DFD0020FFF73BFD36
:1024A0000220FFF704FD0120FFF740FD0820FFF7A1
:1024B0006EFD1020FFF78EFDCF20FFF723FD2220B9
:1024C000FFF77FFD4020FFF790FD0020FFF736FD6E
:1024D0000020FFF73BFD0020FFF795FD0120FFF7EF
:1024E00046FD10BD10B5012205210220FEF776F948
:1024F0000020FFF73CFD8020FFF75AFD3F20FFF74B
:102500002DFD0020FFF74BFD0020FFF7F3FC04201A
:10251000FFF701FD0220FFF7CAFC0120FFF706FDCF
:102520000820FFF734FD1020FFF754FDCF20FFF700
:10253000E9FC03E09C6C000051710000F120FFF702
:1025400040FD4020FFF751FD0020FFF7F7FC002081
:10255000FFF7FCFC0020FFF756FD0120FFF707FD09
:1025600010BD00B587B05CA207CA04AB07C300204A
:10257000FFF749FD30202823052202210090594809
:10258000FFF718FE0520FFF72EFCFFF737FF0520A9
:10259000FFF729FCFFF71CFF0520FFF724FC202094
:1025A00001234022002100900846FFF788FE052005
:1025B000FFF719FC2020012340220021009018463B
:1025C000FFF77DFE0520FFF70EFCFFF7FCFE052060
:1025D000FFF709FC012000212023019000930291C4
:1025E00003900B460A460846FFF7C4FE0520FFF796
:1025F000FAFB012000211F22202300930192029167
:1026000003900B460A460846FFF7B4FE0520FFF785
:10261000EAFB022000210122202300930192029173
:1026200003900B4603220846FFF7A4FE0520FFF7A0
:10263000DAFB022000211F22202300930192029145
:1026400003900B4603220120FFF794FE0520FFF7BD
:10265000CAFB022000210122202300930192029153
:1026600003900B46072204210120FFF783FE05207B
:10267000FFF7B9FB022000211F22202300930192C3
:10268000029103900B46072204210020FFF772FEFF
:102690000520FFF7A8FBFFF796FE0520FFF7A3FB39
:1026A000FF20FFF7B0FC0520FFF79DFBFFF7EAFCDA
:1026B0000520FFF798FB0020FFF7A5FCFFF7FCFCC7
:1026C0000520FFF790FB2523032204A90120FFF733
:1026D00053FD07B000BD0000354E49564953494FE0
:1026E0004E000000DC6B0000F3B587B00020C84945
:1026F00008600846076805210120FDF7D0FF012288
:1027000005211046FEF76AF8002205210120FEF798
:1027100051F81E20FFF77AFA012205211046FEF734
:1027200049F8002205210120FEF758F80020034651
:102730000246052100900120FDF7A6FE052101209B
:10274000FDF781FF002410E0E007C00F00231A46C8
:10275000052100900120FDF797FE00BFAC480068FE
:10276000B842FBD0AA480768641C032CECD30024B1
:102770006FE0012000231A4605210090FDF784FE3A
:1027800000BFA3480068B842FBD0A1480768A14831
:1027900000680190002003460246052100900120B8
:1027A000FDF772FE00BF9A480068B842FBD0984817
:1027B0000768984801680198814204D295490198B8
:1027C0000968461A05E0934801680198081A924979
:1027D0000E1A082C07D26806050E9048864237D399
:1027E0000120054334E0102C0BD206984006000E61
:1027F00006908A4886422BD301210698084306900A
:1028000026E0182C0BD205984006000E0590834850
:1028100086421DD3012105980843059018E0202C1D
:102820000BD204984006000E04907C4886420FD3D9
:1028300001210498084304900AE003984006000E22
:1028400003907648864203D30121039808430390FE
:10285000641C282C8DD3012000231A4605210090EA
:10286000FDF712FE00BF6A480068B842FBD00521A0
:102870000120FDF714FF079905980870079904983F
:102880004870089805700899069848700295029D4E
:1028900006982818C0B20290059902984018C0B254
:1028A0000290049902984018C0B2029003990298CD
:1028B000884202D1012009B0F0BD0020FBE730B50D
:1028C00089B00025FFF7B7FB55A200210846FFF7A6
:1028D000D4FC99E007A908A8FFF706FF0446002CDE
:1028E0003FD008A800788021084000280FD008A811
:1028F00000784106490E08A801704078009008A8A9
:1029000003784AA2102102A802F0AEFC09E008A850
:102910004078009008A8037848A2102102A802F08D
:10292000A3FC02AA00210220FFF7A7FC6846407F13
:1029300000906846037F45A2102102A802F094FC93
:1029400002AA00210320FFF798FC6846407F009010
:102950006846037F08A84278017840A0FDF7B8FCDC
:1029600002E045A0FDF7B4FC08A8007832280FDD8E
:10297000002D0DD1012202210020FDF71BFF40A2F6
:1029800000210720FFF779FC43A0FDF7A1FC0125FA
:1029900008A800782D280FDA002D0DD00022022182
:1029A0001046FDF707FF42A200210720FFF765FC54
:1029B00045A0FDF78DFC0025C820FFF727F9FFF79C
:1029C0008FF9062800D120E0C820FFF71FF9FFF794
:1029D00087F9062800D118E0C820FFF717F9FFF79C
:1029E0007FF9062800D110E0C820FFF70FF9FFF7A4
:1029F00077F9062800D108E0C820FFF707F9FFF7AC
:102A00006FF9062800D100E064E700BF09B030BDCF
:102A1000CC000010D000001080BB0000180900009E
:102A200054656D7020262048756D000054656D70EA
:102A30003A202D25642E25642020000054656D70F9
:102A40003A2025642E2564202000000048756D3A48
:102A5000202025642E256420200000000D0A5465E6
:102A60006D703A2025642E256420202048756D3A2B
:102A7000202025642E2564000D0A6661696C000023
:102A800054656D703E35302C205475726E206F6E1B
:102A90002046414E000000000D0A54656D703E3521
:102AA000302C205475726E206F6E2046414E00000F
:102AB00054656D703C34352C205475726E206F66F1
:102AC000662046414E0000000D0A54656D703C348E
:102AD000352C205475726E206F66662046414E007C
:102AE00008B500210091012269468820FEF7AEFE5C
:102AF000012269468820FEF793FE6846007808BDEB
:102B000008B501210091012269468820FEF79EFE4A
:102B1000012269468820FEF783FE6846007808BDDA
:102B2000704708B50021684601708021417002227B
:102B300069468820FEF78AFEAF48B0490860012048
:102B40000004AF49086008BD38B500240421009195
:102B5000012269468820FEF779FE01226946882015
:102B6000FEF75EFE68460478052100910122694661
:102B70008820FEF76BFE012269468820FEF750FE92
:102B800068460078000204439C48006844439C481F
:102B90000168204602F09AFD0446204638BD38B54B
:102BA0000546FFF79DFF04460C2120468843044656
:102BB000A8002043C4B2002168460170447002227C
:102BC00069468820FEF742FE38BD38B50446FFF757
:102BD00087FF0546AD08AD00284620430546002185
:102BE000684601704570022269468820FEF72EFE75
:102BF000002C06D0012C09D0022C0CD0032C13D1B0
:102C00000EE0012000047E4908600DE00120000371
:102C10007B49086008E0FF2001307949086003E043
:102C200010207749086000BF00BF38BD38B50446A2
:102C3000FFF766FF05460C21284688430546A0009D
:102C40002843C5B2012168460170457002226946D9
:102C50008820FEF7FBFD002C06D0012C08D0022CAA
:102C60000AD0032C10D10BE06348644908600BE0E4
:102C700064486249086007E063486049086003E00F
:102C800062485E49086000BF00BF38BD38B50446E1
:102C900000255B490968614308465849096802F004
:102CA00015FD05460221684601702804010E68469C
:102CB0004170022269468820FEF7C8FD38BD38B54C
:102CC000044600254E490968614308464B49096896
:102CD00002F0FCFC05460321684601702804010E41
:102CE00068464170022269468820FEF7AFFD38BD74
:102CF00038B50546FFF704FF0446202120468843E7
:102D00000446204628430446012168460170447069
:102D1000022269468820FEF799FD38BD10B5FFF7FD
:102D2000EFFE044620202040400910BD38B5FFF7D3
:102D3000E7FE044620212046884304464121684698
:102D400001704470022269468820FEF77FFD38BD7D
:102D500038B5FFF7C5FE0446802120468843044667
:102D60000021684601704470022269468820FEF7FF
:102D70006DFD40200443002168460170447002222A
:102D800069468820FEF762FD38BD10B586B0FFF7B2
:102D900052F91FA200210846FFF76FFA0021012017
:102DA000FEF7E5FCFFF7BCFEFFF7BBFE0120FFF7D7
:102DB0003DFF19A0FDF78CFA19E0FFF7C5FE0446A8
:102DC000234616A21421684602F04EFA6A460021F4
:102DD0000220FFF752FA214612A0FDF779FAFA20F5
:102DE000FEF714FFFEF77CFF062800D100E0E4E7C1
:102DF00000BF06B010BD0000CD0300008C00001025
:102E000090000010340F0000D03C000040F30000A0
:102E10004C696768740000000D0A000025642020DA
:102E200020200000256420200000000008B50921B2
:102E30000091012269463A20FEF708FD0122694609
:102E40003A20FEF7EDFC6846007808BD08B516216B
:102E50000091012269463A20FEF7F8FC01226946FA
:102E60003A20FEF7DDFC6846007808BD38B5044618
:102E70001621684601704470022269463A20FEF726
:102E8000E5FC38BD10B50520FFF7F0FF10BDF8B523
:102E900004460D46164600BFFFF7C8FFC007C00F27
:102EA0000028F9D006210091012269463A20FEF758
:102EB000CDFC012269463A20FEF7B2FC6846007854
:102EC00040B2207007210091012269463A20FEF7A6
:102ED000BDFC012269463A20FEF7A2FC6846007854
:102EE00040B2287008210091012269463A20FEF77D
:102EF000ADFC012269463A20FEF792FC6846007854
:102F000040B23070F8BD70B505460024FFF79EFF53
:102F100004460C21204688430446A8002043C4B23E
:102F20002046FFF7A3FF70BD70B505460024FFF7EC
:102F30008DFF0446A408A4002046284304462046EA
:102F4000FFF794FF70BD00B58DB00021069105918B
:102F50000491039102910191FFF76DF83AA20021CB
:102F60000846FFF78AF900210120FEF700FCFFF771
:102F700089FF01AA02A903A8FFF789FF5FE001AA60
:102F800002A903A8FFF783FF1420FEF73FFE04AA5F
:102F900005A906A8FFF77BFF6846017B007E081A9B
:102FA00041B203916846017A007D081A41B202914C
:102FB00068460179007C081A41B2019168460C23E9
:102FC000C35623A2142107A802F04EF907AA002134
:102FD0000220FFF752F968460C2141561FA0FDF769
:102FE00077F968460823C35620A2142107A802F0E7
:102FF0003BF907AA00210320FFF73FF968460821A3
:1030000041561DA0FDF764F968460423C3561EA26D
:10301000142107A802F028F907AA00210420FFF7CD
:103020002CF96846042141561AA0FDF751F9FA20FF
:10303000FEF7ECFDFEF754FE062800D100E09EE707
:1030400000BF0DB000BD0000417869732D33000052
:1030500041636320783A2025642020000D0A4163F3
:103060006320783A2025642C2020000041636320EF
:10307000793A20256420200041636320793A202595
:10308000642C202000000000416363207A3A202550
:1030900064202000416363207A3A2025642E2000BA
:1030A000014600200B785B1EDAB2002204E08B5C44
:1030B0001B18D8B2531CDAB20B789342F7DC704776
:1030C00070B504460D46002C2BD1002207210220AA
:1030D000FDF770FB00BFFE48C068022108400028D1
:1030E00005D0FB48C06810210840002801D001200D
:1030F00000E000200028EED1F548856000BFF448CC
:10310000C068102108400028F9D100BFF048C0680D
:10311000142108400428F9D1012207210220FDF7DB
:1031200049FBEB48806880B270BDF3B581B00D46B5
:10313000802208210020FEF738F90198FFF7B0FF40
:103140000090AA210020FFF7BBFF0024BB21002034
:10315000FFF7B6FF2855641C00270AE00198C15DFF
:103160000020FFF7ADFF2855641C0120FEF74EFD3F
:103170007F1C01980078B842F0D800200099FFF732
:103180009FFF2855641CC820FEF740FD01202870D1
:1031900000210846FFF794FFAA2806D00222082142
:1031A0000020FEF702F90020FEBD0120FEF72EFDF3
:1031B00000210846FFF784FFBB2806D00222082121
:1031C0000020FEF7F2F80020EEE70120FEF71EFDDA
:1031D00001984078012806D0202806D0212806D062
:1031E000222808D105E00B2607E0072605E0132674
:1031F00003E0032601E0072600BF00BF00270024EC
:1032000009E000210846FFF75BFF28550120FEF783
:10321000FDFC7F1C641CB742F3D902220821002068
:10322000FEF7C3F8E0B2BFE7F0B5CDB0032120A8A8
:1032300081850121C185A7A02C90A8A02D90AAA1CD
:103240002BA8C160ACA1016178222FA96846FDF7C7
:1032500007F82BA80FC801F0D1FA0022082102209C
:10326000FDF7BCFA32E208210220FDF7AEFA002891
:1032700061D122A9A448FFF758FF1F90A3A0FDF732
:1032800027F80225002429E06C2C21DC22A8435DCC
:103290009FA2042120A801F0E7FF20A803780022C4
:1032A00021460620FEF7ADFFA01D84B220A843787A
:1032B000002221460620FEF7A4FFA01D84B220A80C
:1032C0008378002221460620FEF79BFFA01D84B2D2
:1032D00022A8415D8EA0FCF7FBFF6D1C1F98854264
:1032E000D2D320A8007A22A90D5C22A8FFF7D8FE2D
:1032F000064620A8007A401C22A9085CB04204D0EF
:1033000020A8007A085CB04208D183A200210720DF
:10331000FEF7B3FF82A0FCF7DBFF0CE082A20021E6
:103320000620FEF7AAFF86A200210720FEF7A5FFD0
:1033300085A0FCF7CDFFFEF7D3FC07463846012FEA
:1033400006D002281CD0052833D006287ED1AEE155
:1033500020A8C08D012806DD20A8C08D401E81B2A6
:1033600020A8C18502E020A8818DC18578222FA9DF
:103370006846FCF775FF2BA80FC801F03FFA9BE1E8
:1033800020A8C18D808D814206DA20A8C08D401C06
:1033900081B220A8C18502E0012020A9C885782239
:1033A0002FA96846FCF75CFF2BA80FC801F026FA8E
:1033B00082E120A8C08D012804D0022860D0032813
:1033C0007ED111E162A0FCF783FF22A94E48FFF7EE
:1033D000ACFE1F904DA0FCF77BFF0025002429E0E8
:1033E0006C2C21DC22A8435D49A2042120A801F015
:1033F0003BFF20A80378002221460620FEF701FFAC
:10340000A01D84B220A84378002221460620FEF7A2
:10341000F8FEA01D84B220A8837800222146062051
:10342000FEF7EFFEA01D84B222A8415D38A0FCF794
:103430004FFF6D1C1F988542D2D322A8FFF730FEA4
:10344000064620A8007A22A9085C00E033E1B042D9
:1034500008D131A200210720FEF70FFF30A0FCF7B2
:1034600037FF0CE030A200210620FEF706FF34A251
:1034700000210720FEF701FF33A0FCF729FF14E12C
:1034800036A0FCF725FF22A93848FFF74EFE1F9013
:103490001EA0FCF71DFF002500247DE06C2C75DCD0
:1034A00022A8435D1AA2042120A801F0DDFE20A875
:1034B0000378002221460620FEF7A3FEA01D00E0AF
:1034C000F2E084B220A8437800222146062050E092
:1034D000000004405246494400000000312E52656D
:1034E0006164204361726400322E577269746520F2
:1034F000436172645F300000332E57726974652037
:10350000436172645F3100007E7300000D0A0000A9
:1035100025303258200000004F6B20202020200052
:103520000D0A4F6B200000002020202020202020AA
:1035300020202020202020202020202020000000EB
:103540004E6F2043617264000D0A4661696C200071
:103550000D0A524649442052656164000D0A5246E4
:1035600049442057726974650000000088730000A8
:103570000CE0FEF746FEA01D84B220A8837800224E
:1035800021460620FEF73DFEA01D84B222A8415D23
:103590005248FCF79DFE6D1C1F98854200D27DE7C6
:1035A00022A8FFF77DFD064620A8007A22A9085C24
:1035B000B04209D14AA200210720FEF75EFE47482B
:1035C0001030FCF785FE0EE0444A18320021062038
:1035D000FEF753FE44A200210720FEF74EFE3F48AF
:1035E0003830FCF775FE60E03C484C30FCF770FE6C
:1035F00022A93F48FFF799FD1F903EA0FCF768FE07
:103600000025002429E06C2C21DC22A8435D334AEC
:10361000042120A801F028FE20A8037800222146DA
:103620000620FEF7EEFDA01D84B220A843780022FC
:1036300021460620FEF7E5FDA01D84B220A8837870
:10364000002221460620FEF7DCFDA01D84B222A840
:10365000415D2248FCF73CFE6D1C1F988542D2D389
:1036600022A8FFF71DFD064620A8007A22A9085CC3
:10367000B04209D11AA200210720FEF7FEFD17482B
:103680001030FCF725FE0EE0144A18320021062007
:10369000FEF7F3FD14A200210720FEF7EEFD0F4810
:1036A0003830FCF715FE00E000BF00BF04E000204A
:1036B00020A9C88500E000BF00BF002F06D020A8C9
:1036C000C08D002802D0FA20FEF7A0FA20A8C08DF5
:1036D000002800D0C7E54DB0F0BD00001035000057
:1036E0004F6B2020000000004661696C0000000064
:1036F000A27300000D0A000070B504460D460022BA
:1037000011460220FDF756F8E800802210436200BF
:10371000104301460120FDF7F8FE00210120FDF7CE
:10372000F4FEC6B2012200210220FDF743F8304624
:1037300070BD10B502210020FFF7DEFF0446A4068D
:10374000A40E042C13D100210846FFF7D5FFFE4933
:10375000FE4A12888854FD480088401CFB490880B6
:1037600008460088802807DB0020088004E000214C
:103770000846FFF7C1FF044602210120FFF7BCFF06
:103780000446A406A40E042C13D100210120FFF747
:10379000B3FFEF49EF4A12888854EE480088401C76
:1037A000EC49088008460088802807DB0020088054
:1037B00004E000210120FFF79FFF044610BD70B513
:1037C00004460D461646002211460220FCF7F2FF81
:1037D000E8006200104301460120FDF796FE3146E5
:1037E0000120FDF792FE012200210220FCF7E2FFFA
:1037F00070BDF8B505460E46BF2203212846FFF7E7
:10380000DEFF02212846FFF777FF044620461021FD
:103810000843024602212846FFF7D1FF0322114642
:103820002846FFF7CCFF01212846FFF765FF044635
:10383000204610218843024601212846FFF7BFFF9A
:1038400004212846FFF758FF04462046802188437C
:10385000024604212846FFF7B2FF832203212846AF
:10386000FFF7ADFF3146E120000301F02FFF84B2E6
:10387000E2B200212846FFF7A2FF221201212846CA
:10388000FFF79DFF032211462846FFF798FF00210E
:103890002846FFF731FF002203210846FCF79EFF70
:1038A000002003460246032100900846FCF7ECFD89
:1038B00003210846FCF7C7FE012211462846FFF700
:1038C0007EFF00212846FFF717FFF8BD70B50546BB
:1038D0000C4600BF05212846FFF70EFF20210840B7
:1038E0000028F7D0224600212846FFF768FF70BD68
:1038F00010B5044621460020FFF7E8FF10BD10B5C3
:10390000044604E021780020FFF7E0FF641C2078E3
:103910000028F7D110BD10B5044621460120FFF75D
:10392000D5FF10BD10B5044604E021780120FFF753
:10393000CDFF641C20780028F7D110BD70B5044677
:103940000D46002605E021780120FFF7BFFF641C2B
:10395000761CAE42F7DD70BD0246002A17D17E48C4
:1039600000887A4B1B88984229D077487A4B1B886D
:10397000C05C087078480088401C774B1880184657
:103980000088802801DB00201880012070477348E0
:103990000088704B1B88984211D06D486F4B1B8874
:1039A000C05C08706D480088401C6C4B188018463D
:1039B0000088802801DB002018800120E6E7002035
:1039C000E4E710B5044621460020FFF7C5FF10BD0F
:1039D00010B5044621460120FFF7BEFF10BD70B5AB
:1039E000C6B0012202210020FCF7F8FE0120FDF7FD
:1039F000E5FB022208210120FDF7D7FCE121490265
:103A00000120FFF7F6FE56A0FFF78CFF032120A848
:103A100001820121418256A0259057A026905CA1E9
:103A200024A8C1605FA10161782228A96846FCF73B
:103A300017FC24A80FC800F0E1FE0025FA20FEF7CD
:103A4000E5F824E11FA8FCF7FFFF002803D018A821
:103A5000007FFFF760FF1FA8FFF7BAFF00286ED0B6
:103A600018A8007FFCF7C7FF18A8037F002229468B
:103A70000720FEF7C6FB18A8037F00222946012075
:103A8000FEF7BFFBA81D85B2782D00DD00250024C0
:103A900004E020A9601C085C0855641C072CF8D3BE
:103AA00018A8007F20A9085520A80078462821D111
:103AB00020A8407841281DD120A880784E2819D10F
:103AC00020A8C078202815D120A800794F2811D12E
:103AD00020A840796E280DD120A88079202809D10E
:103AE00020A8C079202805D1002202211046FCF729
:103AF00061FE24E020A80078462820D120A8407844
:103B000041281CD120A880784E2818D120A8C07840
:103B1000202814D120A800794F2810D120A840795E
:103B200066280CD120A88079662808D120A8C07901
:103B3000202804D1012202210020FCF73BFEFEF7E1
:103B4000CFF80646012E37E0B404001094000010B0
:103B50003405001098000010960000109A00001024
:103B600068656C6C6F207A68616F686500000000A2
:103B70005A69674265650000312E53656E642048BE
:103B8000656C6C6F205A6967426565210000000012
:103B9000322E53656E64205475726E206F6E20460F
:103BA000414E0000332E53656E64205475726E20B2
:103BB0006F66662046414E0006D0022E20D0052EAC
:103BC0003BD0062E61D15CE020A8408A012806DDAA
:103BD00020A8408A401E81B220A8418202E020A88D
:103BE000018A4182782228A96846FCF739FB24A87B
:103BF0000FC800F003FE0025FA20FEF707F845E0A5
:103C000020A8418A008A814206DA20A8408A401C06
:103C100081B220A8418202E0012020A948827822B6
:103C200028A96846FCF71CFB24A80FC800F0E6FD95
:103C30000025FA20FDF7EAFF28E020A8408A0128A5
:103C400004D0022809D0032815D10DE06820FFF721
:103C500062FE9CA0FCF73CFB0EE0A0A0FFF762FE1A
:103C6000A1A0FCF735FB07E0A5A0FFF75BFEA7A02E
:103C7000FCF72EFB00E000BF00BFFA20FDF7C6FFF7
:103C800004E0002020A9488200E000BF00BF20A877
:103C9000408A002800D0D5E646B070BD70B5C6B0E9
:103CA0000120FDF78BFA022208210120FDF77DFBA0
:103CB000E12149020020FFF79CFD032120A8018299
:103CC0000121418297A0259098A026909DA124A82B
:103CD000C160A1A10161782228A96846FCF7C0FA59
:103CE00024A80FC800F08AFD0026FA20FDF78EFFF9
:103CF000E1E01FA8FCF7A8FE002807D018A8007F65
:103D0000FFF7F6FD18A8007FFCF775FE1FA8FFF768
:103D100058FE002860D018A8007FFCF76CFEB01D8C
:103D200086B2782E00DD0026002404E020A9601C65
:103D3000085C0855641C072CF8D318A8007F20A93C
:103D4000085520A80078462821D120A8407841288D
:103D50001DD120A880784E2819D120A8C07820280D
:103D600015D120A800794F2811D120A840796E28BC
:103D70000DD120A88079202809D120A8C079202839
:103D800005D1002202211046FCF714FD24E020A8F2
:103D90000078462820D120A8407841281CD120A8AE
:103DA00080784E2818D120A8C078202814D120A8C7
:103DB00000794F2810D120A8407966280CD120A87E
:103DC0008079662808D120A8C079202804D1012252
:103DD00002210020FCF7EEFCFDF782FF0546012DD5
:103DE00006D0022D1DD0052D35D0062D58D153E01B
:103DF00020A8408A012806DD20A8408A401E81B202
:103E000020A8418202E020A8018A4182782228A9C4
:103E10006846FCF725FA24A80FC800F0EFFC00263E
:103E20003FE020A8418A008A814206DA20A8408A21
:103E3000401C81B220A8418202E0012020A94882D2
:103E4000782228A96846FCF70BFA24A80FC800F0CE
:103E5000D5FC002625E020A8408A012804D00228AD
:103E600009D0032815D10DE041A0FFF748FD44A07B
:103E7000FCF72EFA0EE019A0FFF741FD1AA0FCF79F
:103E800027FA07E044A0FFF73AFD20A0FCF720FA4C
:103E900000E000BF00BF04E0002020A9488200E04D
:103EA00000BF00BF002D06D020A8408A002802D005
:103EB000FA20FDF7ABFE20A8408A002800D018E7C2
:103EC00046B070BD0D0A53656E642048656C6C6F1A
:103ED000205A6967426565212020000046414E2036
:103EE0004F6E2020000000000D0A53656E642054C0
:103EF00075726E206F6E2046414E2020000000003B
:103F000046414E204F666620000000000D0A5365B2
:103F10006E64205475726E206F66662046414E2096
:103F20002000000052532D3438350000312E5365E7
:103F30006E642048656C6C6F2052532D34383521E7
:103F400000000000322E5475726E206F6E206F7468
:103F50006865722046414E00332E5475726E206F94
:103F60006666206F746865722046414E000000004E
:103F700048656C6C6F2052532D3438352120000079
:103F80000D0A53656E642048656C6C6F2052532D8A
:103F9000343835212000000046414E204F6666200F
:103FA0002000000070B504E0FC4AFD49FD48FEF722
:103FB0006EFFFD4801780078401E40B2FA4A10704A
:103FC0000029F1D100201146087000210120FDF7E1
:103FD000CEFBFEF757FFF34900200856F34908705F
:103FE000EF4900200856F2490870EC4900200856B5
:103FF000F0490870E94AEA49EA48FEF748FF142008
:10400000FDF704FEE54C00202056EA4C00256557DC
:10401000431BE34C00202056E54C00256557421B0E
:10402000E04C00202056E14C00256557411BE2A0E2
:10403000FCF74EF9DB4900200856214600228A563B
:10404000801A322832DCD64900200856D84900228E
:104050008A56801A322829DCD04900200856D549D2
:1040600000228A56801A322820DCCE4900200856C9
:10407000214600228A56801A3121C943884215DB25
:10408000C74900200856CA4900228A56801A3121A1
:10409000C94388420ADBC14900200856C5490022AD
:1040A0008A56801A3121C943884201DA012070BD45
:1040B0000020FCE770B5102000F005FBEFE20820BF
:1040C00000F007FB002828D0BEA000BF082000F0A9
:1040D000F4FA00F0AFFF00281CD0BE4C607801025B
:1040E000A078081885B200F0F9FAA84201D10120A1
:1040F00000E00020002804D1B64800F081FF00282D
:1041000008D0B44800F069FF002803D0022000F076
:10411000DAFA02E0082000F0D6FA022000F0D9FA1C
:10412000002833D0022000F0C8FAABA0A94A1178C9
:1041300000BF10460078801E030002F0BFFC0A0694
:104140000A220E13222218221D22202000F0BBFA80
:104150001BE0402000F0B7FA17E0FF20013000F02C
:10416000B2FA12E00120400200F0ADFA0DE00120A9
:10417000000300F0A8FA08E00120800300F0A3FA91
:1041800003E0082000F09FFA00BF00BF202000F0ED
:10419000A0FA002824D0202000F08FFA96A000BFBB
:1041A00000BF00BF00BF8B48C07A002815D08948E7
:1041B00041780A0281785118964A118000BF96A46E
:1041C00000F08CFA054600BF99A200210120FEF7FD
:1041D00054F8082000F077FA02E0102000F073FA9B
:1041E00000BF8C480088002801DD012000E000208D
:1041F000002804D0102000F06CFA002821D091A0F3
:1042000000BF102000F059FA1221954801F024FA5D
:1042100001209349087000BF7E4840680446072289
:1042200021468F4800F0DCFE8D4800F0D5FE8C481A
:1042300000F0F4FE082000F046FA7D20C000FDF7F3
:10424000E5FC402000F045FA002807D085A000BF1B
:10425000402000F032FA802000F035FA802000F093
:1042600038FA00281ED085A000BF802000F025FA73
:1042700012217B4801F0F0F904207949087000F020
:104280002DFA04462146764800F02BFA744800F0D7
:10429000EBFE734800F0A0FE714800F0BFFE08205E
:1042A00000F011FAFF20013000F013FA002808D0C6
:1042B000FF20013000F001FA77A000BF082000F0D5
:1042C00002FA0120400200F004FA00280FD07BA07F
:1042D00000BF0120400200F0F0F93E4800F016FF58
:1042E0000120800200F0EFF9082000F0ECF9012035
:1042F000800200F0EEF900281ED076A000BF012059
:10430000800200F0DAF91221554801F0A5F90720E2
:104310005349087000F0E2F904462146504800F085
:10432000E0F901214E48C17000F056FE4C4800F003
:1043300075FE6420FDF76AFC0120C00400F0C9F995
:10434000002822D00120C00200F0C3F900281CD0B0
:1043500065A000BF1221424801F07EF908204049C3
:10436000087000F0BBF9044621463D4800F0B9F959
:104370003B4800F031FE3A4800F050FE082000F0C3
:10438000A2F97D20C000FDF741FC0120000300F0F0
:10439000A0F9002800D0C3E0DCE000009E0000107F
:1043A0009D0000109C000010A20000109F00001053
:1043B000A0000010A100001025643A25643A25648D
:1043C0000A0000004745545F434D445F4556454E43
:1043D00054000000B4050010434D445F5245414471
:1043E000595F4556454E543A70726F746F636F6CE7
:1043F0005F69642069733A00524543454956455FF9
:104400004445565F4C4F47494E5F5253515F4556A6
:10441000454E5400E4000010636F6E6E65637420B7
:1044200073756363657373206465765F6964000008
:104430004C534A5F416C6C69616E636520204C6F20
:1044400067696E0053454E445F4445565F4C4F4785
:10445000494E5F5245515F4556454E54000000009D
:10446000C605001053454E534F525F4D53475F52A0
:1044700045515F4556454E540000000053454E449B
:104480005F53454E534F525F4D53475F5253515FF9
:104490004556454E54000000524543454956455F38
:1044A00053454E534F525F4D53475F5253515F52E6
:1044B00053515F4556454E54000000005245434558
:1044C0004956455F4354524C5F5245515F455645EE
:1044D0004E54000053454E445F4354524C5F525378
:1044E000515F4556454E540053454E445F57415227
:1044F0004E494E475F5245515F4556454E54203A0E
:1045000020756E74696C20726563656976652077C5
:1045100061726E696E6720737563636573732100E2
:1045200073A000BF0120000300F0C7F800BF774868
:10453000C078002807D00120C00200F0BEF8082093
:1045400000F0C1F806E00120C00200F0BCF808202D
:1045500000F0B9F80120400300F0BBF8002823D098
:104560006BA000BF0120400300F0A7F812216E48A5
:1045700001F072F80A206C49087000F0AFF80446A8
:104580002146694800F0ADF8674800F097FD66489D
:1045900000F022FD644800F041FD082000F093F88F
:1045A0007D20C000FDF732FBFF20013000F091F8C4
:1045B000002808D05D4800BFFF20013000F07DF8E2
:1045C000082000F080F80120800300F082F8002825
:1045D0001FD057A000BF0120800300F06EF84B48A9
:1045E000C07801280AD159A200210320FDF745FE19
:1045F000C820FDF70BFB5AA000BF0AE05CA2002117
:104600000320FDF73AFEC820FDF700FB5DA000BFC8
:1046100000BF0120800400F05CF8002817D05EA0E5
:1046200000BF2821674801F017F866496648FEF781
:104630007CFD6649086008460068282807D20846BD
:104640000068002803D00120400300F03CF801205E
:10465000C00400F03EF8002809D05DA000BFFFF7BD
:10466000A1FC002803D00120C00200F02CF8082093
:1046700000F02FF8002802D1082000F024F80120D3
:10468000C00300F026F8002806D057A000BF012084
:10469000C00300F012F803E00A20FDF7B7FA0EE5B8
:1046A00000BF70BD70B504460D4600F09AFBFFF7E1
:1046B00001FD01E0002070BDFCE74E49096881431F
:1046C0004C4A116070474B4909680143494A1160DF
:1046D00070470146474800680840704746480088D0
:1046E0007047024691700812507001207047000018
:1046F000524543454956455F5741524E494E475FE3
:104700005253515F4556454E54000000B405001009
:1047100053454E445F4745545F524649445F5245B6
:10472000515F4556454E5400C605001098440000A0
:10473000524543454956455F4745545F52464944B3
:104740005F5253515F4556454E54000048454C4C0E
:104750004F204C414F205349204A4921000000007E
:1047600048454C4C4F204C414F205349204A49006A
:10477000434C4F5345202020202020444F4F5221AE
:10478000000000005065726D697373696F6E20647C
:10479000656E696564256400544553545F5246490B
:1047A000445F4556454E543A73657420616E6420EB
:1047B000636C656172206279206374726C2072652B
:1047C00071000000D80500107E730000E0000010AA
:1047D000544553545F5741524E494E475F415849E3
:1047E000535F4556454E5400455849545F4556451C
:1047F0004E540000D4000010E40000100FB470B557
:104800006946498A481E062100F06AFF85B2681C85
:104810000621484384B26946088AA04201DD052684
:1048200006E06946098A481E062100F059FF8EB24B
:10483000FDF701FC00210846059AFDF71EFD5023F7
:10484000002266211046FDF7DCFC672300226C2164
:104850001046FDF7D6FC2023002272211046FDF7FA
:10486000D0FC28463130C3B2002278211046FDF733
:10487000C8FC002420E06846418A062068430019ED
:10488000401C81420BD10621694309198B0006A9FE
:10489000CA58A11CC8B20121FDF7EFFC0AE00621AD
:1048A000694309198B0006A9CA58A11CC8B2002186
:1048B000FDF7E3FC601C84B2B442DCDD70BC08BCD4
:1048C00004B0184710B50446002C0ED0012C10D1AE
:1048D0007F20D049C8600122CF4801681046FCF70C
:1048E00064FA0120FCF79FF903E00120FCF7A5F929
:1048F00000BF00BF10BD10B5C0B0022110A80187D5
:1049000001214187C5A01F90C5A02090C8A11EA865
:10491000C160782222A96846FBF7A2FC1EA80FC836
:10492000FFF76CFFFA20FDF771F96BE0FDF7D8F99E
:104930000446012C06D0022C1CD0052C33D0062CAA
:1049400055D150E010A8408F012806DD10A8408FF7
:10495000401E81B210A8418702E010A8018F418754
:10496000782222A96846FBF77BFC1EA80FC8FFF738
:1049700045FF3DE010A8418F008F814206DA10A864
:10498000408F401C81B210A8418702E0012010A98D
:104990004887782222A96846FBF762FC1EA80FC848
:1049A000FFF72CFF24E010A8408F012802D0022836
:1049B00016D10AE0002211460320FBF7FBFE00227D
:1049C00001210320FBF7F6FE0BE00122002103206A
:1049D000FBF7F0FE012211460320FBF7EBFE00E09F
:1049E00000BF00BF04E0002010A9488700E000BF1E
:1049F00000BF002C06D010A8408F002802D0FA205B
:104A0000FDF704F910A8408F00288FD140B010BDE9
:104A100010B5C0B0022110A801870121418788A0EC
:104A20001F9089A020908DA11EA8C160782222A984
:104A30006846FBF715FC1EA80FC8FFF7DFFEC8206D
:104A4000FDF7E4F85DE0FDF74BF90446012C06D0D4
:104A5000022C1CD0052C33D0062C47D142E010A8E4
:104A6000408F012806DD10A8408F401E81B210A89B
:104A7000418702E010A8018F4187782222A9684669
:104A8000FBF7EEFB1EA80FC8FFF7B8FE2FE010A83B
:104A9000418F008F814206DA10A8408F401C81B2FE
:104AA00010A8418702E0012010A94887782222A996
:104AB0006846FBF7D5FB1EA80FC8FFF79FFE16E060
:104AC00010A8408F012802D0022808D103E001205D
:104AD000FFF7F8FE04E00020FFF7F4FE00E000BF5F
:104AE00000BF04E0002010A9488700E000BF00BF1D
:104AF000002C06D010A8408F002802D0FA20FDF725
:104B000085F810A8408F00289DD140B010BD10B589
:104B1000C0B0022110A801870121418754A01F9035
:104B200054A0209057A11EA8C160782222A96846EF
:104B3000FBF796FB1EA80FC8FFF760FEFA20FDF7F3
:104B400065F861E0FDF7CCF80446012C06D0022C94
:104B50001CD0052C33D0062C4BD146E010A8408F3A
:104B6000012806DD10A8408F401E81B210A84187A1
:104B700002E010A8018F4187782222A96846FBF73E
:104B80006FFB1EA80FC8FFF739FE33E010A8418F56
:104B9000008F814206DA10A8408F401C81B210A815
:104BA000418702E0012010A94887782222A968469F
:104BB000FBF756FB1EA80FC8FFF720FE1AE010A84F
:104BC000408F012802D002280CD105E000220221EA
:104BD0001046FBF7EFFD06E0012202210020FBF763
:104BE000E9FD00E000BF00BF04E0002010A94887F5
:104BF00000E000BF00BF002C06D010A8408F0028A6
:104C000002D0FA20FDF702F810A8408F002899D1B1
:104C100040B010BD00800140A40000104C4544008D
:104C2000312E5475726E206F6E204C45440000008A
:104C3000322E5475726E206F6666204C454400001B
:104C4000537065616B657200312E5475726E206F02
:104C50006E20537065616B6572000000322E5475D2
:104C6000726E206F666620537065616B657200001E
:104C700046414E00312E5475726E206F6E204641B3
:104C80004E000000322E5475726E206F666620460C
:104C9000414E000010B52F480068401C2D490860A7
:104CA00001210020FBF727FD0446002C08D02A48EC
:104CB0000068401C2849086001210020FBF74EFDD8
:104CC00010BD10B525480068401C2449086001212A
:104CD0000846FBF710FD0446002C08D02048006869
:104CE000401C1F49086001210846FBF737FD0521DC
:104CF0000120FBF700FD00280CD01A4880691A49F2
:104D000008601A480068401C184908600521012005
:104D1000FBF724FD10BD10B508210220FBF7EBFCCA
:104D2000002808D012480068401C1149086008217A
:104D30000220FBF713FD10BD10B503210846FBF759
:104D4000DAFC002805D0FEF7F4FC03210846FBF747
:104D500005FD10BDAC000010B0000010B400001044
:104D6000B800001000E000E0D0000010CC000010FF
:104D7000C000001010B5002819DA8A4A03071B0F7B
:104D8000083B9B089B00D2588307DC0EFF23A340FF
:104D90009A434B071B0E8407E40EA3401A43814B32
:104DA0000407240F083CA408A4001A5118E07E4A06
:104DB00003231B02D21883089B00D2588307DC0E02
:104DC000FF23A3409A434B071B0E8407E40EA34026
:104DD0001A43754B032424021B198408A4001A519A
:104DE00010BD10B5FBF7D3FAFBF73AFB0320FBF736
:104DF0001AFB6E480069C008C0006C49086108468B
:104E0000006901210843694908610122002103204A
:104E1000FBF7E4FC012200210320FBF7CBFC01227D
:104E200011460320FBF7DAFC012211460320FBF7B1
:104E3000C1FC012202210020FBF7D0FC012202214B
:104E40000020FBF7B7FC59484030C06BC008C000D9
:104E500056494031C8630846C06B01210843534995
:104E60004031C863012211461046FBF7B7FC01220E
:104E700011461046FBF79EFCFCF766FF2020FCF76E
:104E80007EFFFCF70DFF4A4C4A48844200D90FE0F0
:104E90002002000A401E4849486107210020C04303
:104EA000FFF768FF0020444988610720086100BFC0
:104EB000002211460320FBF77DFC00220121032084
:104EC000FBF778FCC820FCF7A1FE0122002103209B
:104ED000FBF770FC012211460320FBF76BFC00205E
:104EE000FCF76CF9022208210020FCF75EFAFDF7BE
:104EF000F9FA32A200210846FDF7BFF930A20021DD
:104F00000120FDF7BAF9E1204002FBF700FD022184
:104F10001520FFF72FFF012202210020FBF75EFC86
:104F20000120FCF74BF9022208210120FCF73DFA91
:104F3000E12149020120FEF75CFC00210120FCF781
:104F400016FCFDF79FFFFA20FCF760FE10BD10B5C0
:104F50001F480068401C1E49086008460068FF2181
:104F6000F53188420FD1002201210320FBF722FCFA
:104F700018480078401C1749087008460078C00699
:104F8000C00E08700DE0124800687D21C9008842FB
:104F900007D3012211460320FBF70CFC00200C492B
:104FA000086010BD1CED00E000E100E0004004409E
:104FB00080BB0000FFFFFF0000E000E04C534A0010
:104FC0004C534A5F416C6C69616E63650000000080
:104FD000D8000010DC000010704701460120704727
:104FE00037B50D461446072C01D000203EBD0722E0
:104FF00029460098C01C00F033FB00200120F5E793
:1050000010B50446834807224168E01C00F0B8FA56
:10501000002801D1012010BD0020FCE770B5054635
:10502000002400BF03E0285DFEF775FC641C122C11
:10503000F9D370BD10B504E077480068401C76498C
:1050400008607649744A12688818FEF7C1FC002887
:10505000F2D1714800681221081A03D16E49086024
:10506000012010BD0020FCE77CB50446694601A87C
:10507000FDF73AFB00210120FCF779FBFDF750FD1D
:10508000FDF74FFD0120FDF7D1FDFDF75DFD064663
:10509000254668460079E870684640792871684678
:1050A0000078687168464078A871EE713004000E8F
:1050B0002872FF2068720020A8727CBD0146584A01
:1050C0001278CA70564A52780A71554A92784A71D3
:1050D000534AD2788A71524A1279CA71504A527927
:1050E0000A724F4A92794A724D4AD2798A724C4A70
:1050F000127ACA724A4A527A0A73494A927A4A73AF
:10510000474AD27A8A730022CA73704770B505463F
:1051100069E02C46012200210320FBF75FFBE078C9
:10512000002805D1012200210320FBF743FB04E006
:10513000002211460320FBF73DFB3A48C06BC00834
:10514000C0003849C8630846C06B0121084335498F
:10515000C863012211461046FBF740FB01221146AD
:105160001046FBF727FB2079002803D00120FFF72A
:10517000A9FB02E00020FFF7A5FB6079FCF7FFFD2B
:10518000012202210020FBF729FBA079002805D08D
:10519000002202211046FBF70DFB04E00122022150
:1051A0000020FBF707FBE079002804D001208004F1
:1051B00000F029F803E00120800400F01EF8207AB6
:1051C000002804D00120C00400F01DF807E00120F1
:1051D000C00400F012F80120C00200F00EF8012017
:1051E0001149087070BD104801780078401E0E4AC1
:1051F000107000298DD100BFF4E70C490968814384
:105200000A4A11607047094909680143074A116059
:1052100070470000E4000010EC000010B40500101E
:10522000D805001040400440F0000010D4000010E9
:105230007CB51D4616460C00009001D00019401E9A
:10524000084B7B442A4669460190304600F097FBA4
:10525000002C054603D069460020FBF74AF8284693
:105260007CBD00005F0700000FB47CB50C0009AAEC
:10527000009001D00019401E094B7B446946019003
:10528000089800F07CFB002C054603D069460020FE
:10529000FBF72FF828467CBC08BC04B01847000078
:1052A0002707000070B5044685690068C10601D56E
:1052B000302600E02026C00707D070BD6268304667
:1052C000A1689047206A401C20626D1EF6D570BD13
:1052D00070B5044685690078C00707D170BD626863
:1052E000A16820209047206A401C20626D1EF6D5E0
:1052F00070BD0000F7B5002575291068009914A647
:1053000011D000F090FA002802DA404211A608E01D
:10531000009909688A0701D50FA602E0490704D55C
:105320000EA6012501E000F087FA009F0024243733
:1053300004E000F021FC30313955641C0028F8D11C
:105340002B4632462146009800F0A8FAFEBD000028
:10535000000000002D0000002B00000020000000D5
:10536000F8B50F460188090502D5224C7C4402E0BD
:10537000204C7C440E3405460021243508E01607F5
:105380001209360FA65D6E541E0732431B09491CD5
:1053900016461E43F3D1224604780023240705D580
:1053A000702F06D0002901D00223113200F076FAC6
:1053B000F8BD01231032F9E770B504460D462146C9
:1053C000106800F039FA0023024629462046FFF70C
:1053D000C7FF70BDD21DD308DB000CCBC0E730B4D3
:1053E000036820241268234303600823C36130BC90
:1053F0000023B5E74C200000F3B50446002081B03F
:1054000020622046E1688847002872D0252802D013
:105410006268A168ABE0594F00267F442046E168EE
:1054200088472028054608DB312D06D27819203818
:105430000078002801D00643F0E7B00701D504202A
:1054400086430020E0610746A0612A2D0AD0284645
:1054500001F058FB002827D0B8000019303D00901B
:10546000856119E00298BA00121902C89161029090
:105470002046E1688847012F054617D1E0690028DA
:105480001FDA202086431CE000980A2180694843E7
:1054900000994019303888612046E1688847054600
:1054A00001F030FB0028EFD1012F0AD02E2D08D1BA
:1054B0002046E16888470546202006437F1C022FCE
:1054C000C3DBA069002803DA4042A0610120064343
:1054D000F00701D0102086436C2D0BD0682D09D029
:1054E0004C2D3CD06A2D38D0742D38D07A2D36D042
:1054F00016E040E0E1682F4620468847B84205465E
:1055000009D16C2F29D001208002E1680643204692
:105510008847054604E06C2F1DD0FF20013006436C
:10552000002D28D028464138192803D80120C00270
:1055300006432035204626602946029A1646FAF789
:10554000FDFD002810D001280BD0F61DF008C0008A
:105550000830029055E74020E1E78020D5E70020A1
:10556000D3E7361D02964CE762682846A16890474B
:10557000206A401C44E7206AFEBD0000C61F0000F0
:105580000346F0B50B439B072DD1244DEF01042AB0
:1055900029D308C810C95E1B9E43121F3E4017D076
:1055A000D8B2E1B2401A3106014310D198B2A1B28B
:1055B000401A310401430AD118022102000A090AE3
:1055C000401A3102014302D1180E210E401AF0BDDB
:1055D000A342DCD018BA21BA884201D90120F0BD1B
:1055E0000020C043F0BD002A01D10020F0BD0378A7
:1055F0000C78401C491C002B0DD0A3420BD1521E2D
:1056000009D003780C78401C491C002B03D0A3421E
:1056100001D1521EEBD1181BF0BD000001010101A8
:1056200001E004C0091F0429FBD28B0701D50280C9
:10563000801CC90700D00270704700290BD0C30737
:1056400002D00270401C491E022904D3830702D5F0
:105650000280801C891EE3E70022EEE70022DFE7DC
:10566000F8B507460B4639461943890713D1164C3E
:10567000E601042A0FD302CB0D1B8D43354202D124
:1056800002C0121FF5E7CBB20370401C521E002B64
:1056900013D0090AF7E7002A14D01978521E5B1CB0
:1056A0000170401C002908D0002A0BD01978521E26
:1056B0005B1C0170401C0029EDD1002A02D011466C
:1056C000FFF7CAFF3846F8BD0101010100220309B6
:1056D0008B422CD3030A8B4211D300239C464EE00D
:1056E00003460B433CD4002243088B4231D30309C9
:1056F0008B421CD3030A8B4201D394463FE0C3097B
:105700008B4201D3CB01C01A524183098B4201D392
:105710008B01C01A524143098B4201D34B01C01A7D
:10572000524103098B4201D30B01C01A5241C308F5
:105730008B4201D3CB00C01A524183088B4201D364
:105740008B00C01A524143088B4201D34B00C01A50
:105750005241411A00D201465241104670475DE065
:10576000CA0F00D04942031000D3404253400022E8
:105770009C4603098B422DD3030A8B4212D3FC2291
:10578000890112BA030A8B420CD3890192118B4210
:1057900008D3890192118B4204D389013AD0921126
:1057A00000E08909C3098B4201D3CB01C01A5241E1
:1057B00083098B4201D38B01C01A524143098B42AA
:1057C00001D34B01C01A524103098B4201D30B0193
:1057D000C01A5241C3088B4201D3CB00C01A5241B8
:1057E00083088B4201D38B00C01A5241D9D243089F
:1057F0008B4201D34B00C01A5241411A00D20146DC
:10580000634652415B10104601D34042002B00D545
:105810004942704763465B1000D3404201B5002007
:10582000C046C04602BD09684A0501D540B270476E
:10583000C905FCD500B2704709684A0501D5C0B258
:105840007047C905FCD580B2704770B50C46054657
:10585000012A05D02878800600D5EA69002302E0F5
:10586000012305E05B1C934202D2E05C0028F9D1E1
:10587000A869E618C01AA861286AC01828622846D4
:10588000FFF710FD04E06A682078A968641C90475F
:10589000B442F8D32846FFF71BFD70BDFFB50446A0
:1058A0000D4681B0243000902168880604D510226E
:1058B000E0699143216000E00120A84201DD471B1F
:1058C00000E000270498A1697A191018081AA0614D
:1058D0002078C00602D42046FFF7E4FC002608E04A
:1058E00003986268A168805D9047206A401C761C1E
:1058F000206204988642F3DB2078C0060AD5204651
:10590000FFF7D0FC06E06268A16830209047206A6B
:10591000401C206238467F1E0028F4DC07E0009817
:105920006268A168405D9047206A401C206228465A
:105930006D1E0028F3DC2046FFF7CAFC2078000625
:1059400002D5022005B0F0BD0120FBE71168026816
:10595000006A530501D5087009E0D30501D5088018
:1059600005E0130602D5C21705C100E0086001205A
:105970007047000001694A1C02610878704700B551
:105980008FB002910021059105490193794403915B
:10599000114604906846FFF72FFD0FB000BD0000D0
:1059A000E5FFFFFF4B680A689A4202D2531C0B6066
:1059B00010707047084B70B50D467B44FFF7DFFF52
:1059C00004462846FBF7A0F8002802D00020C04378
:1059D00070BD204670BD0000FFB0FFFFF7B5044664
:1059E000154686B02B487844002703C83E460090F1
:1059F000019111E007986A467100415A02A800F02F
:105A0000AFFC411C07D02178890603D5E26939181B
:105A100091420ED83F18761C2078800602D5E069A6
:105A2000B84206DDAE42E5DB07987100405A002817
:105A3000E0D1A069C01BA0612046FFF733FC1548E8
:105A400078445A3803C800900020019116E04100C4
:105A50006A460798415A02A800F082FC0590401C53
:105A60000AD0002505E0626802A8A168405D904761
:105A70006D1C05988542F6D30498401CB0420490F2
:105A8000E5DB206AC01920622046FFF721FC09B03F
:105A9000F0BD00000E1A0000F7B5D21D0025D20897
:105AA00015A6D200F52905CA11D0002A05DA002171
:105AB0004042914111A60A4608E0009909688B0707
:105AC00001D50FA602E0490701D50EA60125114612
:105AD000009F0024243704E000F062F830323A5589
